{
  "contractName": "ZombieFactory",
  "abi": [
    {
      "constant": true,
      "inputs": [
        {
          "name": "",
          "type": "address"
        }
      ],
      "name": "ownerZombieCount",
      "outputs": [
        {
          "name": "",
          "type": "uint256"
        }
      ],
      "payable": false,
      "stateMutability": "view",
      "type": "function"
    },
    {
      "constant": true,
      "inputs": [
        {
          "name": "",
          "type": "uint256"
        }
      ],
      "name": "zombies",
      "outputs": [
        {
          "name": "name",
          "type": "string"
        },
        {
          "name": "dna",
          "type": "uint256"
        }
      ],
      "payable": false,
      "stateMutability": "view",
      "type": "function"
    },
    {
      "constant": true,
      "inputs": [
        {
          "name": "",
          "type": "uint256"
        }
      ],
      "name": "zombieToOwner",
      "outputs": [
        {
          "name": "",
          "type": "address"
        }
      ],
      "payable": false,
      "stateMutability": "view",
      "type": "function"
    },
    {
      "inputs": [],
      "payable": false,
      "stateMutability": "nonpayable",
      "type": "constructor"
    },
    {
      "anonymous": false,
      "inputs": [
        {
          "indexed": false,
          "name": "zombieId",
          "type": "uint256"
        },
        {
          "indexed": false,
          "name": "name",
          "type": "string"
        },
        {
          "indexed": false,
          "name": "dna",
          "type": "uint256"
        }
      ],
      "name": "NewZombie",
      "type": "event"
    },
    {
      "constant": false,
      "inputs": [
        {
          "name": "_name",
          "type": "string"
        }
      ],
      "name": "createRandomZombie",
      "outputs": [],
      "payable": false,
      "stateMutability": "nonpayable",
      "type": "function"
    }
  ],
  "bytecode": "0x60806040526010600055600054600a0a60015534801561001e57600080fd5b506107188061002e6000396000f300608060405260043610610062576000357c0100000000000000000000000000000000000000000000000000000000900463ffffffff16806301afd7e1146100675780632052465e146100be578063528b7b8f1461016b5780637bff0a01146101d8575b600080fd5b34801561007357600080fd5b506100a8600480360381019080803573ffffffffffffffffffffffffffffffffffffffff169060200190929190505050610241565b6040518082815260200191505060405180910390f35b3480156100ca57600080fd5b506100e960048036038101908080359060200190929190505050610259565b6040518080602001838152602001828103825284818151815260200191508051906020019080838360005b8381101561012f578082015181840152602081019050610114565b50505050905090810190601f16801561015c5780820380516001836020036101000a031916815260200191505b50935050505060405180910390f35b34801561017757600080fd5b5061019660048036038101908080359060200190929190505050610324565b604051808273ffffffffffffffffffffffffffffffffffffffff1673ffffffffffffffffffffffffffffffffffffffff16815260200191505060405180910390f35b3480156101e457600080fd5b5061023f600480360381019080803590602001908201803590602001908080601f0160208091040260200160405190810160405280939291908181526020018383808284378201915050505050509192919290505050610357565b005b60046020528060005260406000206000915090505481565b60028181548110151561026857fe5b9060005260206000209060020201600091509050806000018054600181600116156101000203166002900480601f0160208091040260200160405190810160405280929190818152602001828054600181600116156101000203166002900480156103145780601f106102e957610100808354040283529160200191610314565b820191906000526020600020905b8154815290600101906020018083116102f757829003601f168201915b5050505050908060010154905082565b60036020528060005260406000206000915054906101000a900473ffffffffffffffffffffffffffffffffffffffff1681565b600080600460003373ffffffffffffffffffffffffffffffffffffffff1673ffffffffffffffffffffffffffffffffffffffff168152602001908152602001600020541415156103a657600080fd5b6103af826103bf565b90506103bb8282610441565b5050565b600080826040518082805190602001908083835b6020831015156103f857805182526020820191506020810190506020830392506103d3565b6001836020036101000a03801982511681845116808217855250505050505090500191505060405180910390206001900490506001548181151561043857fe5b06915050919050565b6000600160026040805190810160405280868152602001858152509080600181540180825580915050906001820390600052602060002090600202016000909192909190915060008201518160000190805190602001906104a3929190610647565b50602082015181600101555050039050336003600083815260200190815260200160002060006101000a81548173ffffffffffffffffffffffffffffffffffffffff021916908373ffffffffffffffffffffffffffffffffffffffff160217905550600460003373ffffffffffffffffffffffffffffffffffffffff1673ffffffffffffffffffffffffffffffffffffffff168152602001908152602001600020600081548092919060010191905055600460003373ffffffffffffffffffffffffffffffffffffffff1673ffffffffffffffffffffffffffffffffffffffff168152602001908152602001600020819055507f88f026aacbbecc90c18411df4b1185fd8d9be2470f1962f192bf84a27d0704b78184846040518084815260200180602001838152602001828103825284818151815260200191508051906020019080838360005b838110156106065780820151818401526020810190506105eb565b50505050905090810190601f1680156106335780820380516001836020036101000a031916815260200191505b5094505050505060405180910390a1505050565b828054600181600116156101000203166002900490600052602060002090601f016020900481019282601f1061068857805160ff19168380011785556106b6565b828001600101855582156106b6579182015b828111156106b557825182559160200191906001019061069a565b5b5090506106c391906106c7565b5090565b6106e991905b808211156106e55760008160009055506001016106cd565b5090565b905600a165627a7a72305820e18a0c77e0fcfd65dd20a340a0f951d63ded35df4dbef3b38d917271c347c6190029",
  "source": "pragma solidity ^0.4.24;\r\n\r\n// State variables are permanently stored in contract storage. This means they are written to\r\n// the Ethereum block chain. Think of them like writing to a DB\r\n\r\n// uint is alias for uint256, smaller versions as uint8, uint16 and uint32\r\n// generally we use uint unless we need for specific  cases.\r\n\r\n// There are two types of arrays in Solidity\r\n// Fixed Array and Dynamic Arrays\r\n// uint[2] fixedArray;\r\n// uint[] dynamicArray;\r\n\r\n// function parameters starts with _ in order to differentiate them from global variables.\r\n\r\n// Private and Public functions\r\n// in Solidity functions are public by default. This means anyone can call your contract function and execute its code\r\n// incase you dont want your function to be public, add private by default\r\n// private functions starts with _ in their name as standard convention.\r\n\r\n// Return values from functions. When a function returns a value, the function signature has return type in the signature\r\n\r\n// When a function does not change the state of data in Solidity, we can declare such functions with view. These functions are\r\n// are read only.\r\n\r\n// Pure functions when the function does not even assess the state in block chain.\r\n\r\n//Ethereum has a hash function keccak256 which is SHA3\r\n// Typecasting is to convert data between different data types\r\n\r\n// Events are a way for your contracts to communicate that something happened on the blockchain to your app\r\n\r\n// Mappings and Addressess\r\n\r\n// Addresses\r\n// The Ethereum blockchain is made up of accounts, which you can think of ike bank accounts.\r\n// The account will have ether which can send and received to and from the account.\r\n// Each of these account has an address which can be thought of as account number.\r\n\r\n// An Address is owned by a specific user or a smart contract.\r\n\r\n// So when a user creates a new zombies by interacting with our app. we will set ownership of theose\r\n// zombies to the ethereum address that called the function.\r\n\r\n// Mapping\r\n// like stucts and arrays, Mappings are another way of storing organized data in Solidity.\r\n// Mapping is essentaillay a key value store for storin and looking up data.\r\n\r\n// Msg.sender\r\n// in Solidity, there are certain global variables that are available to all functions.  msg.sender\r\n// is such funcion which refers to the person who called the current function.\r\n// msg.sender gives you the security of Ethereum blockchain. The only way someone can modify some else data\r\n// is only if they steal the private key associated with their Ethereum Address.\r\n\r\n// Require\r\n// makes it so that the function will throw an error and stop executing if some condition is not true.\r\n\r\n// inheritance\r\n// similar to c++, the functionality in parent is inherited to derived classes.\r\n\r\n// Interacting with other Contracts\r\n// for or contract to talk to another contract on the block chain that we dont own, we need to define\r\n// an interface\r\n\r\ncontract ZombieFactory {\r\n    uint dnaDigits=16;\r\n\r\n    uint dnaModulus = 10 ** dnaDigits;\r\n\r\n    struct Zombie {\r\n        string name;\r\n        uint   dna;\r\n    }\r\n\r\n    Zombie[] public zombies;\r\n\r\n    mapping (uint => address)  public zombieToOwner;\r\n    mapping (address => uint) public ownerZombieCount;\r\n\r\n    event NewZombie(uint zombieId, string name, uint dna);\r\n\r\n    constructor(){\r\n    }\r\n\r\n    function _createZombie(string _name, uint _dna) internal {\r\n        uint id = zombies.push(Zombie(_name,_dna)) -1;\r\n        zombieToOwner[id]= msg.sender;\r\n        ownerZombieCount[msg.sender] = ownerZombieCount[msg.sender]++;\r\n        emit NewZombie(id,_name,_dna);\r\n    }\r\n\r\n    function _generateRandomDna(string _str) private view returns (uint){\r\n       uint  rand = uint(keccak256(_str));\r\n       return rand %  dnaModulus;\r\n    }\r\n\r\n    function createRandomZombie(string _name) public {\r\n        require(ownerZombieCount[msg.sender] == 0);\r\n        uint randDna = _generateRandomDna(_name);\r\n        _createZombie(_name, randDna);\r\n    }\r\n}\r\n\r\n",
  "sourcePath": "E:\\blockchain\\cryptoZombies\\zombies\\contracts\\ZombieFactory.sol",
  "compiler": {
    "name": "solc",
    "version": "0.4.24+commit.e67f0147.Emscripten.clang"
  },
  "schemaVersion": "2.0.1",
  "updatedAt": "2018-10-26T10:40:19.726Z"
}